:100000000C94D8180C9409190C9409190C9409191A
:100010000C9409190C9409190C9409190C940919D8
:100020000C9409190C9409190C9409190C940919C8
:100030000C9409190C9409190C9409190C940919B8
:100040000C9409190C9454600C9409190C94091916
:100050000C9409190C9409190C942D750C94F550F5
:100060000C9409190C94244E0C9409190C94091938
:100070000C9409190C9409190C9409190C94091978
:100080000C9409190C9409190C9409190C94091968
:100090000C9409190C9409190C9409190C94091958
:1000A0000C9409190C9409190C9409190C94091948
:1000B0000C9409190C9409190C9409190C94091938
:1000C0000C9409190C9409190C9409190C94091928
:1000D0000C9409190C9409190C9409190C94091918
:1000E0000C940919E3DEE3DEEEDEEEDEEEDEF9DE91
:1000F000F9DEF9DE0EDF04DF04DF04DFA34EA64ED7
:10010000954E994E9F4EDD4EAA4EAE4EB44EB84E11
:10011000BC4EC24EC64ECA4EDD4ED04ED44ED84E08
:10012000115016501B5025502F50A8503950415097
:10013000495053505D50675076508050A8508A50B7
:1001400094509E50AE75BD75DC75EB7506761576D0
:100150003076357638763D76407645764F76084A65
:10016000D73B3BCE016E84BCBFFDC12F3D6C7431CB
:100170009ABD56833DDA3D00C77F11BED9E4BB4C22
:100180003E916BAAAABE000000803F05A84CCDB2EC
:10019000D44EB93836A9020C50B9918688083CA6CD
:1001A000AAAA2ABE000000803F004E414E494E4997
:1001B0005459494E46CDCCCC3D0AD7233C17B7D134
:1001C0003877CC2B329595E6241FB14F0A000020DA
:1001D000410000C84200401C4620BCBE4CCA1B0E59
:1001E0005AAEC59D74536C6565702E2E2E00205A34
:1001F0003A200020593A200042656420583A2000F5
:10020000526573756D696E67207072696E74005403
:10021000617A53746966662072656164792E00574D
:1002200061697420666F7220757365722E2E2E00C0
:100230004E6F206D6F76652E00456E642066696C8A
:1002400065206C69737400426567696E2066696C2D
:1002500065206C697374005344207072696E746910
:100260006E67206279746520004E6F7420534420BD
:100270007072696E74696E670046696C65206465AA
:100280006C657465643A0044656C6574696F6E20D2
:100290006661696C65642C2046696C653A20006F64
:1002A00070656E206661696C65642C2046696C65BA
:1002B0003A20002569206D696E2C20256920736520
:1002C000630044454255472044525952554E2045FB
:1002D0004E41424C45440044454255472045434821
:1002E0004F20454E41424C4544004B494C4C4544FF
:1002F0002E200048656174696E6720646F6E652EFC
:10030000003F0020573A0048656174696E672E2EE1
:100310002E0042656420646F6E652E004265642085
:1003200048656174696E672E004649524D574152C7
:10033000455F4E414D453A4D61726C696E202053C8
:100340004F555243455F434F44455F55524C3A68C1
:10035000747470733A2F2F6769746875622E636FB7
:100360006D2F4D61726C696E4669726D7761726551
:100370002F4D61726C696E2050524F544F434F4C59
:100380005F56455253494F4E3A312E30204D41432E
:1003900048494E455F545950453A54617A537469FF
:1003A00066662045585452554445525F434F554E5A
:1003B000543A3220555549443A303030303030309C
:1003C000302D303030302D303030302D3030303036
:1003D0002D3030303030303030303030300A002086
:1003E0005A3A0020593A0020436F756E7420583AEB
:1003F000200020453A00205A3A0020593A00583A45
:10040000004D31343520533C696E6465783E206F71
:100410007574206F662072616E67652028302D31FB
:100420002900486F74656E64206F66667365747327
:100430003A004D3330302053363539205032303089
:100440000A4D3330302053363938205032303000A6
:100450004F6666736574206170706C6965642E0008
:100460004D3330302053343020503230300045721C
:10047000723A20546F6F206661722100546F6F20B2
:100480006661722066726F6D207265666572656E58
:10049000636520706F696E74003A20007A5F6D6149
:1004A000783A20006F6B007A5F6D696E3A20005ACF
:1004B000204F666673657400220A00556E6B6E6F7E
:1004C000776E20636F6D6D616E643A202200205A52
:1004D0003A200020593A200042656420583A200012
:1004E000207A3A200020793A200020783A200047EC
:1004F00030205832303020593135302046323136B4
:10050000303000202B00200A436F727265637465DF
:100510006420426564204865696768742076732E9C
:100520002042656420546F706F6C6F67793A200ABF
:1005300000202B002B2D2D2D2D2D2D2D2D2D2D2D56
:100540002B0A007C2E2E2E46726F6E742E2E2E7C61
:100550000A007C4C6566742E2E52696768747C0AAA
:10056000007C2E2E2E4261636B2E2E2E2E7C0A00D6
:100570002B2D2D2D2D2D2D2D2D2D2D2D2B0A00200C
:100580000A4265642048656967687420546F706F1B
:100590006772617068793A200A004D65616E206F5C
:1005A000662073616D706C656420706F696E747322
:1005B0003A200020643A200020623A200045716E03
:1005C00020636F656666696369656E74733A20615E
:1005D0003A200028422961636B00284629726F6E19
:1005E00074002852296967687400284C296566746C
:1005F000003F4E756D626572206F662070726F628B
:100600006564202850296F696E74732069732069AE
:100610006D706C61757369626C65202832206D693C
:100620006E696D756D292E0A0052756E6E696E6762
:1006300020696E204452592D52554E206D6F6465CD
:1006400000473239204175746F20426564204C6543
:1006500076656C696E670A003F2856296572626F7D
:100660007365204C6576656C20697320696D706CCC
:1006700061757369626C652028302D34292E00481D
:100680006F6D6520582F59206265666F7265205A1C
:1006900000486F6D6520582F59206265666F72653E
:1006A000205A0000000A0B02090C0D0E0807030473
:1006B0000100000000000000000000000000000039
:1006C0000000000000000000000000000000001218
:1006D00011100000000000000000000000000000F9
:1006E0000000000000000000004B494C4C45442E27
:1006F0002000202D20496E76616C69642065787435
:100700007275646572206E756D62657220210000DD
:10071000002100240027002A002D003000330001B2
:10072000010000040107010A01010210202008084D
:100730001020401020408002010201080402010143
:10074000020408102040808040201008040201802C
:100750000402018040201008040201080402010183
:100760000204081020408001020408102040800587
:10077000050505070508080808020202020A0A081A
:100780000804040404010101010101010103030340
:100790000303030303040707070C0C0C0C0C0C0CDD
:1007A0000C0202020206060606060606060B0B0BE4
:1007B0000B0B0B0B0B2020506C616E6E657242753B
:1007C0006666657242797465733A200020467265E8
:1007D00065204D656D6F72793A20004D6179203248
:1007E00038203230323000436F6D70696C65643A86
:1007F0002000286D69726167653333352C205461A0
:100800007A53746966662044656661756C747329F1
:1008100000207C20417574686F723A2000323031BC
:100820003600204C61737420557064617465643ABD
:1008300020002044656661756C74004D61726C69BE
:100840006E0020536F667477617265205265736520
:100850007400205761746368646F67205265736524
:1008600074002042726F776E206F7574205265732A
:100870006574002045787465726E616C20526573F2
:10088000657400506F77657255700073746172748F
:10089000006572726F722077726974696E67207476
:1008A0006F2066696C6500656E6473746F70732089
:1008B0006869743A205A00205A3A00656E6473746D
:1008C0006F7073206869743A20590020593A0065A6
:1008D0006E6473746F7073206869743A20580020D6
:1008E000583A00656E6473746F7073206869743A67
:1008F00020006F6B00446F6E6520736176696E67D0
:100900002066696C652E004D3239002200656E71DB
:1009100075657565696E672022004D383420582052
:1009200059205A204500256920686F75727320256B
:1009300069206D696E7574657300446F6E65207013
:1009400072696E74696E672066696C65004B494C0C
:100950004C45442E200053544F505045442E200007
:100960005072696E7465722073746F707065642064
:1009700064756520746F206572726F72732E2046E5
:10098000697820746865206572726F7220616E6488
:1009900020757365204D39393920746F2072657365
:1009A000746172742E202854656D7065726174755F
:1009B00072652069732072657365742E20536574A7
:1009C0002069742061667465722072657374617247
:1009D00074696E6729004E6F204C696E65204E75F4
:1009E0006D626572207769746820636865636B73F4
:1009F000756D2C204C617374204C696E653A200033
:100A00004E6F20436865636B73756D2077697468FA
:100A1000206C696E65206E756D6265722C204C616C
:100A20007374204C696E653A2000636865636B736C
:100A3000756D206D69736D617463682C204C6173F2
:100A400074204C696E653A20004C696E65204E75C5
:100A50006D626572206973206E6F74204C617374CF
:100A6000204C696E65204E756D6265722B312C20AD
:100A70004C617374204C696E653A20004D31313001
:100A8000005761726E696E673A20486F6D696E67D4
:100A90002042756D702044697669736F72203C2026
:100AA000310020706F736974696F6E206F757420E8
:100AB0006F662072616E67652E003F50726F6265CF
:100AC000200000060900FE070192032120FFFF0815
:100AD000FF07FF0000000600000107070602008074
:100AE000808080800080030202060105A0A0050727
:100AF000070600005050F850F85050050707060050
:100B0000002078A07028F020050707060000C0C864
:100B100010204098180507070600006090A040A824
:100B20009068020303060104C04080030707060122
:100B3000002040808080402003070706010080409D
:100B4000202020408005050506000120A870A8206F
:100B50000505050600012020F820200203030602F7
:100B6000FFC04080050101060003F80202020602F0
:100B700000C0C005050506000108102040800507DB
:100B800007060000708888888888700307070601B8
:100B90000040C040404040E0050707060000708864
:100BA00008708080F8050707060000F8102010087C
:100BB00008F005070706000010305090F8101005E7
:100BC0000707060000F880F0080888700507070688
:100BD0000000708080F0888870050707060000F824
:100BE0000810202020200507070600007088887064
:100BF00088887005070706000070888878080870E4
:100C0000020505060200C0C000C0C00206060602BA
:100C1000FFC0C000C040800407070600001020404D
:100C200080402010050303060002F800F8040707BF
:100C300006010080402010204080050707060000C4
:100C4000708808102000200507070600007088083B
:100C500068A8A870050707060000708888F88888CB
:100C600088050707060000F08888F08888F00507E7
:100C700007060000708880808088700507070600DE
:100C800000F08888888888F0050707060000F8804B
:100C900080F08080F8050707060000F88080F0806B
:100CA0008080050707060000708880B88888700576
:100CB0000707060000888888F888888801070706E3
:100CC0000200808080808080800507070600003851
:100CD0001010101090600507070600008890A0C053
:100CE000A09088050707060000808080808080F83B
:100CF00005070706000088D8A888888888050707A0
:100D00000600008888C8A89888880507070600009C
:100D100070888888888870050707060000F0888832
:100D2000F080808005070706000070888888A890FA
:100D300068050707060000F08888F0A0908805077E
:100D400007060000788080700808F0050707060095
:100D500000F82020202020200507070600008888B2
:100D60008888888870050707060000888888888832
:100D700050200507070600008888888888A8500545
:100D80000707060000888850205088880507070656
:100D9000000088888850202020050707060000F8FA
:100DA0000810204080F8030707060100E0808080DB
:100DB0008080E0050505060001804020100803073B
:100DC00007060100E02020202020E00503030600A4
:100DD00004205088050101060000F8020202060204
:100DE000058040050505060000700878887805072D
:100DF000070600008080B0C88888F0050505060059
:100E00000070808088700507070600000808689851
:100E10008888780505050600007088F88070050749
:100E2000070600003048E040404040050606060046
:100E3000FF7088887808700507070600008080B07A
:100E4000C8888888010707060200800080808080AB
:100E5000800308080601FF200020202020A0400475
:100E60000707060000808090A0C0A0900307070637
:100E70000100C04040404040E0050505060000D0AC
:100E8000A8A8A8A8050505060000B0C88888880598
:100E9000050506000070888888700506060600FFB4
:100EA000F08888F080800506060600FF788888783C
:100EB0000808050505060000B0C880808005050506
:100EC00006000070807008F004070706000040402C
:100ED000E040404030050505060000888888986895
:100EE00005050506000088888850200505050600D0
:100EF000008888A8A85005050506000088502050E5
:100F0000880506060600FF888888780870050505AC
:100F1000060000F8102040F80307070601002040F3
:100F200040804040200107070602008080808080CA
:100F30008080030707060100804040204040800574
:100F40000202060002689000000006000000000097
:100F5000060000000000060000000000060000007F
:100F6000000006000000000006000000000006006F
:100F70000000000006000000000006000000000065
:100F8000060000000000060000000000060000004F
:100F9000000006000000000006000000000006003F
:100FA0000000000006000000000006000000000035
:100FB000060000000000060000000000060000001F
:100FC000000006000000000006000000000006000F
:100FD0000000000006000000000006000000000005
:100FE00006000000000006000000000006000000EF
:100FF00000000600000000000600000000000600DF
:1010000000000000060000000000060000000000D4
:1010100006000001070706020080008080808080B3
:101020000507070600002070A8A0A8702005070784
:10103000060000304040E04050A8050505060000CD
:101040008870507088050707060000885020F82037
:10105000F82001070706020080808000808080055C
:10106000080806000030482050502090600301011D
:10107000060107A0050707060000F888B8B8B88879
:10108000F8050707060001700878887800F805055C
:10109000050600012850A05028050303060001F8AA
:1010A0000808020202060206408005070706000043
:1010B000F888A88898A8F8050101060006F8040435
:1010C00004060003609090600507070600002020DA
:1010D000F8202000F804050506000360902040F089
:1010E000030505060003E020E020E00202020602FC
:1010F0000640800508080600FF8888888898E880F0
:1011000080050707060000789898781818180202DA
:1011100002060202C0C00202020602FF408003056E
:101120000506000340C04040E005070706000170C7
:101130008888887000F8050505060001A050285031
:10114000A00507070600008890A858B808080507FA
:10115000070600008890B84898203805080806005F
:1011600000C040C048D8380808050707060000201E
:1011700000204080887005080806000040200070AC
:1011800088F888880508080600001020007088F894
:1011900088880508080600002050007088F88888B4
:1011A0000508080600006890007088F8888805081F
:1011B000080600005000708888F88888050808062E
:1011C00000002050207088F8888805070706000076
:1011D0003860A0B8E0A0B80508080600FF70888055
:1011E0008088702060050808060000402000F88014
:1011F000F080F8050808060000081000F880F0806C
:10120000F8050808060000205000F880F080F80576
:1012100007070600005000F880F080F80308080671
:101220000100804000E0404040E003080806010063
:10123000204000E0404040E003080806010040A0D4
:1012400000E0404040E0030707060100A000E04046
:101250004040E0050707060000704848E84848702D
:1012600005080806000068900088C8A89888050846
:1012700008060000402070888888887005080806E5
:101280000000102070888888887005080806000013
:101290002050007088888870050808060000689053
:1012A0000070888888700508080600005000708863
:1012B000888888700505050600018850205088053B
:1012C00008080600FF1070A8A8A8A8704005080824
:1012D0000600004020888888888870050808060075
:1012E000001020888888888870050808060000207B
:1012F000500088888888700508080600005000881B
:10130000888888887005080806000010208850200A
:101310002020200509090600FFC0407048487040A1
:1013200040E00408080601FF609090A09090E080E3
:101330000508080600004020007008788878050835
:101340000806000010200070087888780508080654
:101350000000205000700878887805080806000012
:10136000689000700878887805070706000050002C
:10137000700878887805080806000020502070085A
:10138000788878050606060000D02878A0A85005C1
:1013900006060600FF7080887020600508080600B9
:1013A000004020007088F8807005080806000010D2
:1013B00020007088F88070050808060000205000A2
:1013C0007088F8807005070706000050007088F8E4
:1013D000807003080806010080400040C04040E0E3
:1013E00003080806010020400040C04040E0030818
:1013F0000806010040A00040C04040E00307070687
:101400000100A00040C04040E0050707060000A022
:1014100040A010788870050808060000689000B0A9
:10142000C888888805080806000040200070888861
:1014300088700508080600001020007088888870F1
:10144000050808060000205000708888887005088C
:1014500008060000689000708888887005070706F5
:10146000000050007088888870050505060001207E
:1014700000F800200507070600FF1070A8A8A87054
:101480004005080806000040200088888898680504
:101490000808060000102000888888986805080859
:1014A0000600002050008888889868050707060015
:1014B00000500088888898680509090600FF1020F8
:1014C00000888888F808700407070601FFC040609C
:1014D000506040E00508080600FF500088888878C2
:1014E000087000002200250028002B002E0031008B
:1014F000340002010000050108010B01000020007A
:101500002300260029002C002F00320000010000DB
:101510000301060109014D3234004D323320257399
:10152000006175746F25692E670057726974696E62
:101530006720746F2066696C653A20002E0A006F80
:1015400070656E206661696C65642C2046696C6507
:101550003A20002E0A0046696C652073656C65634D
:10156000746564002053697A653A200046696C65A9
:10157000206F70656E65643A20006F70656E20663E
:1015800061696C65642C2046696C653A20006F7057
:10159000656E206661696C65642C2046696C653AED
:1015A00020004E6F772066726573682066696C65EF
:1015B0003A20004E6F7720646F696E672066696C11
:1015C000653A20002220706F7300222070617265DE
:1015D0006E743A2200535542524F5554494E45209D
:1015E00043414C4C207461726765743A22004B4948
:1015F0004C4C45442E2000747279696E6720746FDC
:101600002063616C6C207375622D67636F64652065
:1016100066696C6573207769746820746F6F206DDC
:10162000616E79206C6576656C732E204D41582073
:101630006C6576656C2069733A005344206361726F
:1016400064206F6B006F70656E526F6F74206661FF
:10165000696C656400766F6C756D652E696E697472
:10166000206661696C6564004572726F723A00535E
:101670004420696E6974206661696C0024F4D4307A
:1016800050C38E20C2A24017828B7011127A910D26
:10169000816CD90AA861E108C75866076151430601
:1016A0001E4B5D05C145A7041A411104093D98036D
:1016B000713931034036DB0265339102D430540274
:1016C000802E1D02632CEE01752AC501B028A001F1
:1016D000102781018F2564012B244B01E022340166
:1016E000AC211F018D200D01801FFC00841EED0028
:1016F000971DDF00B81CD200E61BC600201BBC00F3
:10170000641AB200B219A8000A19A0006A18990058
:10171000D117910040178B00B516840031167E005A
:10172000B31579003A157300C7146F0058146A0096
:10173000EE1366008813630025135E00C7125B007A
:101740006C12570015125400C111510070114F0056
:1017500021114B00D61049008D104700461044005F
:1017600002104200C00F4000800F3E00420F3C00BC
:10177000060F3B00CB0E3800930E37005C0E350091
:10178000270E3400F30D3200C10D3100900D3000F2
:10179000600D2E00320D2D00050D2C00D90C2B00F4
:1017A000AE0C2900850C29005C0C2700350C2700A5
:1017B0000E0C2600E80B2400C40B2400A00B230011
:1017C0007D0B23005A0B2100390B2100180B200040
:1017D000F80A1F00D90A1E00BB0A1E009D0A1D0040
:1017E000800A1D00630A1C00470A1B002C0A1B000C
:1017F000110A1A00F7091A00DD091900C4091900B5
:10180000AB091900920917007B091800630917003A
:101810004C09160036091600200916000A091500A1
:10182000F5081500E0081400CC081400B8081400EE
:10183000A4081400900813007D0812006B08130020
:10184000580812004608120034081100230811003D
:101850001208110001081100F0071000E007100045
:10186000D0071000C0071000B0070F00A10710003C
:1018700091070E0083070F0074070F0065070E0025
:1018800057070E0049070E003B070D002E070E00FC
:1018900020070D0013070D0006070D00F9060C00C8
:1018A000ED060D00E0060C00D4060C00C8060C0086
:1018B000BC060C00B0060C00A4060B0099060C0038
:1018C0008D060B0082060B0077060B006C060B00E2
:1018D00061060A0057060B004C060A0042060A0081
:1018E00038060A002E060A0024060A001A060A0014
:1018F0001006090007060A00FD050900F4050900A5
:10190000EB050900E2050900D9050900D005090029
:10191000C7050900BE050900B5050800AD050800AA
:10192000A50509009C050800940508008C05080021
:10193000840508007C050800740508006C05070094
:10194000650508005D050700560508004E050700FF
:101950004705070040050800380507003105070066
:101960002A050700230507001C05060016050700C9
:101970000F0507000805060002050700FB04060026
:10198000F5040700EE040600E8040600E204070080
:10199000DB040600D5040600CF040600C9040600D7
:1019A000C3040600BD040600B7040600B104050028
:1019B000AC040600A6040600A00405009B04060073
:1019C00095040500900406008A04050085040500BE
:1019D000800406007A040500750405007004050003
:1019E0006B04050066040500610405005C04050045
:1019F00057040500520405004D0405004804050085
:101A0000430405003E0404003A04050035040500C3
:101A1000300404002C0405002704040023040500FE
:101A20001E0404001A040400160405001104040036
:101A30000D0404000904050004040400000404006B
:101A4000FC030400F8030400F4030400F0030400A2
:101A5000EC030400E8030400E4030400E0030400D2
:101A6000DC030400D8030400D4030400D003040002
:101A7000CC030400C8030300C503030024F404D905
:101A8000201BC40C5C0E9804C4095F026507710139
:101A9000F405F900FB04B30048048700C1036900A2
:101AA0005803550003034500BE023A00840231008A
:101AB00053022A002902250004022000E4011C0030
:101AC000C8011900AF011700980114008401130028
:101AD000710110006101100051010E0043010D0061
:101AE00036010B002B010B0020010B001501090032
:101AF0000C01090003010800FB000800F3000800C6
:101B0000EB000700E4000600DE000600D800060037
:101B1000D2000600CC000500C7000500C200050089
:101B2000BD000400B9000400B5000400B1000400C9
:101B3000AD000400A9000400A5000300A2000300FA
:101B40009F0004009B000300980003009500020022
:101B500093000300900003008D0002008B0003003F
:101B60008800020086000200840003008100020059
:101B70007F0002007D0002007B000200790002006D
:101B8000770001007600020074000200720001007C
:101B9000710002006F0002006D0001006C00020085
:101BA0006A00010069000200670001006600010090
:101BB0006500010064000200620001006100010094
:101BC000600001005F0002005D0001005C00010098
:101BD0005B0001005A00010059000100580001009B
:101BE000570001005600010055000100540001009B
:101BF0005300000053000100520001005100010099
:101C0000500001004F0001004E0000004E00010096
:101C10004D0001004C0001004B0000004B00010092
:101C20004A0001004900010048000000480001008E
:101C3000470001004600000046000100450000008A
:101C40004500010044000100430000004300010082
:101C5000420000004200010041000000410001007C
:101C6000400001003F0000003F0001003E00000076
:101C70003E0001003D0000003D0001003C0000006E
:101C80003C0000003C0001003B0000003B00010064
:101C90003A0000003A00010039000000390001005C
:101CA0003800000038000000380001003700000054
:101CB0003700010036000000360000003600010049
:101CC0003500000035000000350001003400000040
:101CD0003400000034000100330000003300000035
:101CE0003300010032000000320000003200010029
:101CF0003100000031000000310001003000000020
:101D000030000000300001002F0000002F00000014
:101D10002F0000002F0001002E0000002E00000008
:101D20002E0001002D0000002D0000002D000000FD
:101D30002D0001002C0000002C0000002C000000F1
:101D40002C0001002B0000002B0000002B000000E5
:101D50002B0001002A0000002A0000002A000000D9
:101D60002A000100290000002900000029000000CD
:101D700029000000290001002800000028000000C0
:101D800028000000280000002800010027000000B3
:101D900027000000270000002700000027000100A6
:101DA000260000002600000026000000260000009B
:101DB000260001002500000025000000250000008D
:101DC000250000002500000025000100240000007F
:101DD0002400000024000000240000002400010072
:101DE0002300000023000000230000002300000067
:101DF0002300000023000000230001002200000057
:101E0000220000002200000022000000220000004A
:101E1000220001002100000021000000210000003C
:101E2000210000002100000021000000210001002D
:101E30002000000020000000200000002000000022
:101E40002000000020000000200000002000010011
:101E50001F0000001F0000001F0000001F00000006
:101E60001F0000001F0000001F0001001E000000F6
:101E70001E0000001E0000001E0000004D3834202F
:101E8000582059205A2045000080BD430000AA4335
:101E900000003E43000000000000000000000000C1
:101EA000000000000000000000003E430000404031
:101EB00000004040000040400080BD430000AA43B5
:101EC00000003E43FFFF017C3C3E5E2B3D3F2F5B0D
:101ED0005D3B2C2A225C0070012C0190012701B08F
:101EE000012201C0011D01F001180110021301308F
:101EF000020E016002090190020401C002FF00000D
:101F000003FA004003F5008003F000D003EB00204B
:101F100004E6007004E100E004DC004005D700C0E6
:101F200005D2004006CD00D006C8008007C30030AF
:101F300008BE00F008B900C009B400B00AAF00B094
:101F40000BAA00D00CA500000EA000500F9B00C0F3
:101F50001096005012910000148C00C0158700B03C
:101F6000178200B0197D00D01B7800001E7300405E
:101F7000206E0090226900F024640040275F0090EA
:101F8000295A00E02B5500102E500020304B001035
:101F9000324600E033410090353C00103737007086
:101FA000383200A0392D00B03A2800A03B23006051
:101FB0003C1E00103D1900903D1400103E0F0070B3
:101FC0003E0A00C03E0500003F0000626564002C30
:101FD0002073797374656D2073746F7070656421FC
:101FE000204865617465725F49443A20001000AD75
:101FF0000330016A0150022B0170030A019004F5BD
:1020000000B005E500D006D800F007CE001009C5E5
:1020100000300ABE00500BB700700CB100900DAB41
:1020200000B00EA600D00FA200F0109D0010129973
:1020300000301395005014920070158E0090168B8E
:1020400000B0178700D0188400F0198100101B7EA3
:1020500000301C7B00501D7900701E7600901F73AD
:1020600000B0207000D0216E00F0226B00102469B7
:102070000030256600502663007027610090285EBE
:1020800000B0295C00D02A5900F02B5600102D54C6
:1020900000302E5100502F4E0070304B00903148D0
:1020A00000B0324500D0334200F0343E0010363BE1
:1020B00000303737005038330070392E00903A29FD
:1020C00000B03B2300D03C1B00F03D1100103F014D
:1020D00000F03F00004572723A204D415854454D82
:1020E00050004D415854454D5020747269676765E2
:1020F000726564004572723A204D494E54454D5008
:10210000004D494E54454D502074726967676572A1
:102110006564004572723A204D494E54454D502039
:10212000424544004D494E54454D502074726967F4
:102130006765726564004572723A204D4158544596
:102140004D5020424544004D415854454D50207457
:102150007269676765726564006563686F3A00530A
:10216000746F7265206D656D6F72790042656400F1
:10217000426564004E6F7A7A6C65004E6F7A7A6CB5
:10218000650046616E2073706565640046616E206F
:1021900073706565640054656D7065726174757205
:1021A000650053746F7265206D656D6F72790042C2
:1021B000656400426564004E6F7A7A6C65004E6F0C
:1021C0007A7A6C650046616E2073706565640046BE
:1021D000616E2073706565640054656D7065726131
:1021E00074757265004573746570732F6D6D00456D
:1021F00073746570732F6D6D005A73746570732FEF
:102200006D6D005A73746570732F6D6D0059737422
:102210006570732F6D6D005973746570732F6D6DDC
:10222000005873746570732F6D6D0058737465700A
:10223000732F6D6D00412D74726176656C00412DB8
:1022400074726176656C00412D726574726163749D
:1022500000412D7265747261637400416D61782074
:102260006500416D6178206500416D6178207A00DC
:10227000416D6178207A00416D6178207900416D6F
:102280006178207900416D6178207800416D617836
:102290002078005654726176206D696E0056547233
:1022A0006176206D696E00566D696E00566D696EBF
:1022B00000566D6178206500566D61782065005686
:1022C0006D6178207A00566D6178207A00566D61D4
:1022D00078207900566D6178207900566D617820FC
:1022E0007800566D617820780056652D6A65726BAE
:1022F0000056652D6A65726B00567A2D6A65726BA1
:1023000000567A2D6A65726B005678792D6A65726F
:102310006B005678792D6A65726B00416363656C5A
:1023200000416363656C005A204F666673657400F4
:102330005A204F666673657400436F6E74726F6CDB
:102340000046696C2E204469612E20320046696C7B
:102350002E204469612E20320046696C2E2044698B
:10236000612E20310046696C2E204469612E203197
:10237000004F6666004F6E20004520696E206D6D2F
:102380003300436F6E74726F6C00092000092000E7
:102390002D2D2D2E2D2D002D2D2D002D2D2D002DF3
:1023A0002D2D002D2D3A2D2D0000000000000000E5
:1023B00000000000007FFFE00000000000000000BF
:1023C000000000007000E0000000000000000000BD
:1023D00000000061F8600000000000000000000044
:1023E000000041F820000000000000000000000094
:1023F0000040F0200000000000000000000000008D
:1024000040602000000000000000000000000058B4
:1024100001A07F80003FC0000000004104005C6319
:10242000A0FBC00079E0000000002082005EF7A061
:10243000F3C00076E0000000002082005EF7A0EB11
:10244000C0007EE0000000004104005C63A07B80CF
:10245000003DC0000000008208005801A07B800001
:102460003BC000000001041000406020FBC000776A
:10247000E00000000104100040F020FBC00070E00C
:102480000000000082080041F820FFC0007FE0004B
:1024900000000041040061F8603F00001F80000060
:1024A00000000000007000E01E00000F00000000AF
:1024B00001FFFF807FFFE00C00000600000000012C
:1024C000FFFF80000000000000000000000000008E
:1024D00000007FFFE000000000000000000000009E
:1024E000007000E00000000000000000000000009C
:1024F000630C6000000000000000000000000047C6
:102500000E200000000000000000000000004F0F3F
:10251000200000000000000000000000005F0FA08D
:102520000000000000000000000000005E07A07F27
:1025300080003FC000000000410400406020FBC05C
:102540000079E00000000020820040F020F3C0008D
:1025500076E00000000020820040F020EBC0007E0A
:10256000E0000000004104004060207B80003DC08E
:10257000000000008208005E07A07B80003BC000D6
:102580000000010410005F0FA0FBC00077E0000016
:1025900000010410004F0F20FBC00070E00000009D
:1025A00000820800470E20FFC0007FE0000000000E
:1025B000410400630C603F00001F80000000000029
:1025C00000007000E01E00000F0000000001FFFF8F
:1025D000807FFFE00C0000060000000001FFFF808C
:1025E0000000004E6F2053442063617264005072FB
:1025F000696E742066726F6D2053440053746F705F
:10260000207072696E7400526573756D652070720A
:10261000696E74005061757365207072696E740024
:10262000436F6E74726F6C005072657061726500FA
:1026300054756E6500496E666F2073637265656ED2
:102640000045313A200045303A20005A3A200059DE
:102650003A2000583A20004D53312C4D533220502F
:10266000696E730A004B64200023646566696E65B9
:10267000202044454641554C545F004B69200023BF
:10268000646566696E65202044454641554C545F3B
:10269000004B70200023646566696E652020444508
:1026A0004641554C545F00504944204175746F7445
:1026B000756E652066696E69736865642120507562
:1026C0007420746865206C617374204B702C204BEF
:1026D0006920616E64204B6420636F6E7374616E59
:1026E00074732066726F6D2062656C6F7720696EFF
:1026F000746F20436F6E66696775726174696F6E7F
:102700002E6800504944204175746F74756E6520C1
:102710006661696C6564212074696D656F7574000C
:10272000504944204175746F74756E652066616907
:102730006C6564212054656D706572617475726595
:1027400020746F6F206869676800204B643A20002E
:10275000204B693A2000204B703A200020436C61E6
:10276000737369632050494420002054753A200057
:10277000204B753A2000206D61783A2000206D6969
:102780006E3A200020643A200020626961733A208A
:10279000004D3234004D323320257300022E2E00BE
:1027A0004D61696E00436172642072656D6F76657C
:1027B00064004361726420696E73657274656400BD
:1027C00000060900FE000000000001090008FE00EC
:1027D0000005080806000040F0C8888898781005B1
:1027E0000808060000C0F88888888888F80505056C
:1027F0000600012030F8302005080806000020708F
:10280000F820202020E00509090600FF2070A8A874
:10281000B8888870200509090600FFE080C0B0A8CC
:10282000283028280509090600FFF8A88888888824
:1028300088A8F8050A0A0600FE205050505088A8C3
:10284000A8887003030306000340A0404D6F76651F
:102850002058004D6F76652059004D6F7665205ADF
:1028600000457874727564657232004578747275CB
:102870006465723100457874727564657232004522
:102880007874727564657231004D6F7665205A00F8
:102890004D6F76652059004D6F76652058004D6F5D
:1028A00076652061786973004D6F766520302E3132
:1028B0006D6D004D6F766520316D6D004D6F7665E5
:1028C0002031306D6D005072657061726500526527
:1028D00073746F7265206661696C73616665004C24
:1028E0006F6164206D656D6F72790053746F7265EE
:1028F000206D656D6F72790046696C616D656E74EF
:10290000004D6F74696F6E0054656D70657261740F
:10291000757265004D61696E00507265686561741D
:102920002041425320636F6E660050726568656196
:102930007420504C4120636F6E66005049442D4313
:10294000005049442D43005049442D44005049440F
:102950002D44005049442D49005049442D49005010
:1029600049442D50005049442D5000200820466114
:1029700063740020082046616374002008204D61C4
:1029800078002008204D6178002008204D696E00F5
:102990002008204D696E004F6666004F6E20004192
:1029A00075746F74656D700046616E207370656537
:1029B000640046616E207370656564004265640062
:1029C000426564004E6F7A7A6C652032004E6F7AF1
:1029D0007A6C652032004E6F7A7A6C652031004E39
:1029E0006F7A7A6C65203100436F6E74726F6C0081
:1029F000426162797374657070696E672058004235
:102A00006162797374657070696E67205900426104
:102A100062797374657070696E67205A00426162F2
:102A20007973746570205A004261627973746570BD
:102A30002059004261627973746570205800466CB9
:102A40006F77203200466C6F77203200466C6F77CC
:102A5000203100466C6F77203100466C6F7700465E
:102A60006C6F770046616E20737065656400466127
:102A70006E207370656564004265640042656400A1
:102A80004E6F7A7A6C652032004E6F7A7A6C6520D0
:102A900032004E6F7A7A6C652031004E6F7A7A6C14
:102AA000652031005370656564005370656564008E
:102AB0004D61696E005072656865617420504C41CB
:102AC00020426564005072656865617420504C4115
:102AD00020416C6C005072656865617420504C41F7
:102AE0002032005072656865617420504C4120317D
:102AF000005072657061726500507265686561743E
:102B000020414253204265640050726568656174DB
:102B10002041425320416C6C0050726568656174BD
:102B20002041425320320050726568656174204133
:102B3000425320310050726570617265004D34322D
:102B400038004D38300053776974636820706F77B0
:102B50006572206F6E004D38310053776974636879
:102B600020706F776572206F666600436F6F6C64CC
:102B70006F776E0050726568656174204142530042
:102B80005072656865617420504C41004D383400C6
:102B900044697361626C65207374657070657273EB
:102BA000004D6F7665206178697300473239004CBB
:102BB0006576656C206265640053657420686F6D8E
:102BC00065206F666673657473004732380041751F
:102BD000746F20686F6D65004D61696E004572729B
:102BE0006F722077726974696E6720746F20454533
:102BF00050524F4D2100206279746573290053654E
:102C00007474696E67732053746F72656420280052
:102C100020627974657329002073746F7265642073
:102C200073657474696E6773207265747269657612
:102C3000656420280048617264636F6465642044A1
:102C4000656661756C742053657474696E67732072
:102C50004C6F616465640020204D383531205A0086
:102C60005A2D50726F6265204F6666736574202816
:102C70006D6D293A0020204D323030204430002044
:102C8000204D32303020543120440020204D32304D
:102C9000302044002044697361626C6564004669B9
:102CA0006C616D656E742073657474696E67733AD8
:102CB0000020440020490020204D333034205000B3
:102CC000204C0020430020440020490020204D33A8
:102CD0003031205000204C00204300204400204987
:102CE0000020500020204D33303120450050494411
:102CF0002073657474696E67733A00204600204241
:102D00000020204D313435204D3120480020460030
:102D100020420020204D313435204D302048004DD8
:102D20006174657269616C2068656174757020708A
:102D30006172616D65746572733A00205A002059A2
:102D40000020204D323036205800486F6D65206FCE
:102D5000666673657420286D6D293A002045002051
:102D60005A0020580020420020540020204D3230CC
:102D700035205300416476616E636564207661722C
:102D80006961626C65733A20533D4D696E206665DA
:102D900065647261746520286D6D2F73292C205431
:102DA0003D4D696E2074726176656C206665656460
:102DB0007261746520286D6D2F73292C20423D6D42
:102DC000696E696D756D207365676D656E742074CD
:102DD000696D6520286D73292C20583D6D617869D7
:102DE0006D756D205859206A65726B20286D6D2FA6
:102DF00073292C20205A3D6D6178696D756D205ABC
:102E0000206A65726B20286D6D2F73292C20204558
:102E10003D6D6178696D756D2045206A65726B2026
:102E2000286D6D2F73290020540020520020204D62
:102E3000323034205000416363656C65726174699F
:102E40006F6E733A20503D7072696E74696E672CB4
:102E500020523D7265747261637420616E64205407
:102E60003D74726176656C00204500205A0020593F
:102E70000020204D3230312058004D6178696D7549
:102E80006D20416363656C65726174696F6E2028A3
:102E90006D6D2F7332293A00204500205A002059C9
:102EA0000020204D3230332058004D6178696D7517
:102EB0006D2066656564726174657320286D6D2F81
:102EC00073293A00204500205A0020590020204D47
:102ED0003932205800537465707320706572207504
:102EE0006E69743A0020400020403A002042403A87
:102EF00000205400202F00202F0020423A00202FD5
:102F00000020543A006F6B0054617A53746966660E
:102F10002072656164792E0054617A537469666623
:102F2000204F66662E007A5F6D61783A20007A5FE6
:102F30006D696E3A2000795F6D61783A2000795FA3
:102F40006D696E3A2000785F6D61783A2000785F95
:102F50006D696E3A200053657474696E672054720F
:102F60006176656C20416363656C65726174696F3D
:102F70006E3A200053657474696E672052657472EE
:102F800061637420416363656C65726174696F6E1F
:102F90003A200053657474696E67205072696E74CC
:102FA00020416363656C65726174696F6E3A2000DD
:102FB00053657474696E67205072696E7420616E17
:102FC000642054726176656C20416363656C657240
:102FD0006174696F6E3A200020746F6F206C6F6EA1
:102FE0006720657874727573696F6E20707265768C
:102FF000656E7465640020636F6C6420657874721C
:103000007573696F6E2070726576656E74656400A5
:103010006F6B0020746F6F206C6F6E672065787423
:10302000727573696F6E2070726576656E74656413
:103030000020636F6C6420657874727573696F6EBD
:103040002070726576656E746564004B494C4C4522
:10305000442E20004B494C4C45442E2000507269B0
:103060006E7465722068616C7465642E206B696C87
:103070006C28292063616C6C6564210020496E76A0
:10308000616C6964206578747275646572200043B0
:10309000616E6E6F7420656E746572207375626404
:1030A00069723A20005374616E64617264204465F1
:1030B00076696174696F6E3A20004D65616E3A20E1
:1030C000002020207369676D613A2000206D6561E2
:1030D0006E3A20002020207A3A2000206F662000DF
:1030E000793A2000783A2000506F736974696F6EE6
:1030F000696E67207468652070726F62652E2E2E6F
:103100000A003F4E756D626572206F66206C6567C0
:103110007320696E206D6F76656D656E74206E6FBD
:103120007420706C61757369626C652028302D3174
:1031300035292E0A00590058003F53616D706C65A7
:103140002073697A65206E6F7420706C6175736985
:10315000626C652028342D3530292E0A004D343814
:10316000205A2D50726F62652052657065617461DE
:1031700062696C69747920746573740A003F5665DE
:1031800072626F7365204C6576656C206E6F74207B
:10319000706C61757369626C652028302D34292E3E
:1031A0000A00526573656E643A2000008CE66BE697
:1031B00011241FBECFEFD1E2DEBFCDBF00E00CBFB8
:1031C00014E0A0E0B2E0EAEEFAE002E00BBF02C0D9
:1031D00007900D92A23DB107D9F725E1A2EDB4E029
:1031E00001C01D92AB3EB207E1F718E1C7EDD8E18F
:1031F00000E006C021970109802FFE010F94CA0448
:10320000C63DD10780E00807A9F70E945BDC0D945A
:1032100064050C9400002F923F924F925F926F9240
:103220007F928F929F92AF92BF92CF92DF92EF9256
:10323000FF920F931F93CF93DF93CDB7DEB7C054A8
:10324000D1090FB6F894DEBF0FBECDBF2091B806EE
:103250003091B90640E6429FC001439F900D112472
:10326000885C9A4F9093F7048093F6048091E4026F
:1032700080FF22C0E9E5F1E28491882341F090913A
:10328000C00095FFFCCF8093C6003196F5CFE0914A
:10329000F604F091F7048191882339F09091C000F1
:1032A00095FFFCCF8093C600F6CF8091C00085FFCC
:1032B000FCCF8AE08093C6002091F6043091F70499
:1032C000F90180812F5F3F4F8032D1F3F093F704F3
:1032D000E093F6048E3461F00091F6041091F70447
:1032E0006AE270E0C8010F942C050097D1F420C069
:1032F000818190ED980F9A3010F08D3269F73296F7
:10330000DF0131962C9120532A30D0F3CD01FC01FE
:10331000019620812032D9F3F093F704E093F6046C
:10332000DBCFFC0131968291803279F08A3269F0EC
:10333000F8012081818180538A3010F00C94C82DCF
:103340001093E4040093E30402C01082ECCFE091F8
:10335000E304F091E40480818F7D31F03196F093A5
:10336000E404E093E304F3CFE091E304F091E40498
:103370008081803231F43196F093E404E093E304E9
:10338000F3CF1093E2040093E1042DAF0E94374580
:103390008C012DAD2D3409F427C2243511F40C9481
:1033A0007F2B273411F00C94C82D8C31910509F432
:1033B0009DC084F48430910544F4823091050CF072
:1033C00041C097FF33C00C94882C049709F443C084
:1033D0000C94882C8A35910509F49FC1ECF48D3149
:1033E000910509F434C14E9711F00C94882C0E9479
:1033F000D45F0E94014E80E090E0A1E6B4E48093A7
:103400004A0290934B02A0934C02B0934D020E944B
:103410008D44E8EFF1E026C18B35910509F481C1B7
:103420008C35910509F482C10C94882C8091560248
:10343000882311F40C94882C0E946D450E9463D758
:103440000C94882C81E00230110509F080E00E9484
:10345000904A0C94882C80E50E942445882371F0C2
:103460008091E1049091E2044AE050E060E070E075
:1034700001960E9429FC6B017C0103C0C12CD12C58
:10348000760183E50E942445882361F00E9444452B
:1034900020E030E04AE754E40E940FFA0F947502EE
:1034A0006B017C010E94D45F0E94864A8091911436
:1034B00090919214A0919314B0919414C80ED91EB7
:1034C000EA1EFB1E0E943492811104C085EE91E039
:1034D0000E94AE5C0E94E9506C157D058E059F052B
:1034E00010F00C94882C0E946ED0F4CF0E94D45F10
:1034F00080E090E0A0E8BFE380931602909317026B
:10350000A0931802B093190210921A0210921B0293
:1035100010921C0210921D0210921E0210921F02A5
:103520001092200210922102109222021092230285
:103530001092240210922502809326029093270273
:10354000A0932802B093290210922A0210922B0213
:1035500010922C0210922D0210922E0210922F0225
:103560001092300210923102109232021092330205
:1035700010923402109235028093360290933702F3
:10358000A0933802B09339020E94014E0E94B143C9
:1035900010924A0210924B0210924C0210924D026D
:1035A00088E50E942445082F89E50E942445182FAC
:1035B0008AE50E942445011105C0111105C091E062
:1035C000982705C0111102C090E001C0982F909378
:1035D0000002911102C0882321F082E090E00E9455
:1035E000107080910002811102C0002321F080E060
:1035F00090E00E94107080910002811102C011239E
:1036000021F081E090E00E9410700E94C54310926A
:1036100015028091D4049091D504A091D604B09164
:10362000D70480934A0290934B02A0934C02B0932C
:103630004D028091D2049091D3049093CC02809358
:10364000CB020E94864A109237050C94882C0E9467
:10365000182E0C94882C9091C00095FFFCCF80937D
:10366000C600319684918111F6CF27E137EB41ED09
:1036700058E36091F2067091F3068091F406909100
:10368000F5060F942C0142E00E94E478E3EFF1E0AC
:103690008491882341F09091C00095FFFCCF8093E6
:1036A000C6003196F5CF27E137EB41ED58E3609145
:1036B000F6067091F7068091F8069091F9060F943E
:1036C0002C0142E00E94E478EEEEF1E08491882340
:1036D00041F09091C00095FFFCCF8093C6003196D9
:1036E000F5CF27E137EB41ED58E36091FA06709191
:1036F000FB068091FC069091FD060F942C0142E0A0
:103700000E94E4788091C00085FFFCCF8AE080931E
:10371000C6000E94E64D0C94882C1092E0040C9494
:10372000882C81E08093E0040C94882C85E40E942E
:103730002445811102C00E94D45F7CE2A72E73E071
:10374000B72EE2EFEE2EE6E0FE2ED12C00E010E0E8
:10375000F50181915F010E9424458823A1F10E9417
:103760004445F7016083718382839383033011059D
:1037700041F5209132073091330740913407509141
:1037800035070E940FFA0F94040460932207709388
:10379000230780932407909325078FB7F8944091CF
:1037A00022075091230760912407709125074093C9
:1037B000EE065093EF066093F0067093F1068FBF0C
:1037C00002C0DD24D3940F5F1F4FF4E0EF0EF11C15
:1037D0000430110509F0BCCFDD2011F40C94882CC5
:1037E0000E94C5430C94882C8537910511F40C94E4
:1037F00057240CF0C0C08A32910509F456C50CF06C
:1038000056C08731910509F4AFC24CF5823191055C
:1038100009F47AC7BCF497FF02C00C94882C82305C
:1038200091050CF4BEC1419711F00C94882C80E3F3
:1038300092E00E94AE5C1798169815981498139809
:103840000C94882C8531910509F484C20CF086C251
:10385000449711F00C94882CE7E4F2E030C28B31ED
:10386000910509F4ACC23CF48931910509F499C27F
:103870000CF484C2A0C28E31910509F4EDC274F437
:103880004C9711F00C94882C41E060E08091E304A7
:103890009091E4040E9498590C94882C8F319105E2
:1038A00009F47DC4809709F41BC40C94882C8836D5
:1038B000910509F439C594F58235910509F41BC7C2
:1038C00074F48035910509F40EC70CF010C7C09749
:1038D00011F00C94882C0E94BFF20C94882C843533
:1038E000910509F411C70CF40AC78535910509F44F
:1038F00042C78C35910511F00C94882C3CE2832E44
:1039000033E0932E06E217E04CE0A42E44E1B42EFF
:1039100089E397E09CAF8BAF312CADC78D36910515
:1039200009F48CC58CF48A36910509F4BFC60CF4F1
:1039300081C58B36910511F00C94882C10926C1473
:1039400010926B140C94882C8037910509F46AC589
:1039500034F48F36910509F40CC50C94882C823709
:10396000910509F4ADC78337910511F00C94882CAB
:10397000E9E2F3E097C78D32914011F40C943B27B4
:103980000E3281E018070CF076C00B3C110511F4E3
:103990000C94D825CCF50C38110509F447C59CF4D6
:1039A0000837110511F40C9404250937110511F499
:1039B0000C9408250737110511F00C94882C0E94EF
:1039C0002BEE0C94882C0E3B110509F4D4C53CF465
:1039D0000139110511F40C940B250C94882C083C2A
:1039E000110511F40C94BD25093C110511F00C943E
:1039F000882C94EFE92E93E1F92E0CE213E024E0F9
:103A0000D22ED00E0C94C0250A3D110511F40C9451
:103A10001026C4F40D3C110511F40C94F82514F48F
:103A20000C94F5250E3C110511F00C94882CAFE791
:103A3000EA2EA4E1FA2E0CE213E0B3E0DB2ED00E66
:103A40000C9401260D3D110511F40C9498263CF4BC
:103A50000C3D110511F40C9489260C94882C023E1F
:103A6000110511F40C94B4260C32114011F40C948D
:103A700009270C94882C043FE1E01E0711F40C94F4
:103A8000F3290CF051C00E3521E0120711F40C940B
:103A9000EC2A84F40F3291E0190711F40C94FC28FD
:103AA00014F40C94E8280033114011F40C944828C5
:103AB0000C94882C003921E0120711F40C94302961
:103AC0003CF40F35114011F40C94242B0C94882CE9
:103AD0000A39E1E01E0711F40C9433290C3A114025
:103AE00011F00C94882C8CE0E2EFF6E0DE011196E8
:103AF00001900D928A95E1F78CE0EFE7F4E1DE01A9
:103B0000909601900D928A95E1F734E2832E35E08C
:103B1000932E5E01F0E2AF0EB11CCE0101961C01A6
:103B200000E010E00C943629033523E0120711F46D
:103B30000C94102A84F4063F91E0190711F40C94B8
:103B4000F92914F40C94F629073F114011F40C9450
:103B5000FC290C94882C0C3823E0120711F40C94E7
:103B6000CE2A64F40B38134011F00C94882C2CE20C
:103B7000E22E23E0F22E10E00C94A12A003AE3E0BA
:103B80001E0709F4FFC2073E134011F00C94882C65
:103B900081E0809356020E94DCEC0E942EDC0C94A3
:103BA000882CA090E304B090E40480E50E942445B2
:103BB000882371F00E9437456C01990FEE08FF08C9
:103BC00011E0C114D104E104F10431F410E004C0A7
:103BD00010E0C12CD12C760183E50E942445882376
:103BE000D9F00E94444520E030E04AE754E40E94C6
:103BF0000FFA0F9475026B017C0111110FC0672B36
:103C0000682B692B59F4F5018081882339F061E034
:103C1000C5010E942E9206C01123A9F38FE192E004
:103C20000E94AE5C81E00E94DFEC0E94D45F0E94A3
:103C3000864AC114D104E104F104D1F080919114B9
:103C400090919214A0919314B0919414C80ED91E1F
:103C5000EA1EFB1E0E94E9506C157D058E059F052E
:103C6000A0F40E94D4EC811110C00E946ED0F2CF5B
:103C70000E94DAEC882311F40C94882C0E94D4EC76
:103C8000811106C00E946ED0F9CF80E00E94DFEC67
:103C900080915411882331F080E092E00E94AE5C64
:103CA0000C94882C8FE092E00E94AE5C0C94882CDF
:103CB0009091C00095FFFCCF8093C600319684910F
:103CC0008111F6CF8091C00085FFFCCF8AE0809300
:103CD000C6001092DB131092DA1340E050E0BA01F4
:103CE00085E891E10E9465688BE1E5E8F1E1DE019C
:103CF000159601900D928A95E1F78091831190912C
:103D000084119C838B8382E793E09A83898340E0CC
:103D100050E0BE016F5F7F4F85E494E00E943A7AE5
:103D2000CE0101960E940D71E9E3F2E084918823AF
:103D300041F09091C00095FFFCCF8093C600319672
:103D4000F5CF8091C00085FFFCCF8AE08093C6004C
:103D50000C94882C0E94FE570C94882C10925411BD
:103D6000109255110C94882C41E061E08091E3049D
:103D70009091E4040E9498590C94882C80915511DC
:103D8000882319F081E0809354110E94E9506093D8
:103D900041147093421480934314909344140C94F0
:103DA000882C80915411882311F40C94882C109243
:103DB00054110C94882C0E94F0F90C94882C80915A
:103DC0005511811103C0E9E6F2E03AC0E7E5F2E0FF
:103DD0008491882341F09091C00095FFFCCF80939F
:103DE000C6003196F5CF6091D5137091D6138091AE
:103DF000D7139091D8134AE00E9449788091C0006F
:103E000085FFFCCF8FE28093C6006091CD13709147
:103E1000CE138091CF139091D0134AE00E9449783D
:103E20008091C00085FFFCCF8AE08093C6000C948F
:103E3000882C9091C00095FFFCCF8093C6003196EE
:103E400084918111F6CF8091C00085FFFCCF8AE07C
:103E50008093C6000C94882C80915511882311F40E
:103E60000C94882C80E293E10E9451B880E293E1A7
:103E70000E949E691092531110925211E090E30437
:103E8000F090E40480915511882311F40C94882C4F
:103E900080E293E10E949E69109254111D8218865F
:103EA0001C821B8282E793E09A83898381E891E1F7
:103EB0009093A1118093A011F70180818F3209F0B6
:103EC00082C06FE270E0C7010F942C058C010F5F78
:103ED0001F4F6AE0762ECE0101964C0101151105A7
:103EE00009F477C06FE270E0C8010F942C056C01F3
:103EF000009709F46FC00817190708F06BC05C0140
:103F0000A01AB10AA501B801CE0180960F945505FB
:103F1000E0E2F0E0EC0FFD1FEA0DFB1D10828E01C8
:103F2000005E1F4FF8018191882339F09091C00005
:103F300095FFFCCF8093C600F6CF8091C00085FF2F
:103F4000FCCF7092C6006091A0117091A111611513
:103F5000710511F06C5F7F4F21E0AE01405E5F4F55
:103F6000CE0105960E94206F811125C0EFE9F2E095
:103F70008491882371F09091C00095FFFCCF8093CD
:103F8000C6003196F5CF9091C00095FFFCCF80938D
:103F9000C600F80181918F018111F5CF8091C00099
:103FA00085FFFCCF8EE28093C600CE0101960E9471
:103FB0000D710C94882C9092A1118092A011860111
:103FC0000F5F1F4F8BCF82EA91E19093A1118093F5
:103FD000A01187016091A0117091A1116115710567
:103FE00011F06C5F7F4F18A21BA222E0A801CE0146
:103FF00080960E94206F811102C0F12C1EC0CE015C
:1040000080960E9470798823C1F36CA57DA58EA54A
:104010009FA541E00E943FB6882379F3E8A920E2FA
:10402000E29FF0011124E85FF04F309731F385EE05
:1040300080831BA20E94FFB5F82ECE0180960E94BD
:10404000804AF11003C0E7E8F2E02FC0E9E7F2E0B0
:104050008491882341F09091C00095FFFCCF80931C
:10406000C6003196F5CFF8018191882339F09091FF
:10407000C00095FFFCCF8093C600F6CF8091C000B2
:1040800085FFFCCF8AE08093C6001092D513109272
:10409000D6131092D7131092D8131CC09091C00061
:1040A00095FFFCCF8093C600319684918111F6CFA5
:1040B000F8018191882339F09091C00095FFFCCFE1
:1040C0008093C600F6CF8091C00085FFFCCF8EE2C2
:1040D0008093C600CE0101960E940D710C94882C2D
:1040E0008091541181110E94D45F0091E3041091DA
:1040F000E40461E270E0C8010F942C05009719F008
:104100008C010F5F1F4F80E50E942445882349F0F2
:10411000FF24F3948091E1049091E20480179107C9
:1041200008F0F12C80915511882311F40C94882CFF
:1041300041E04F2561E0C8010E94985983E50E9443
:104140002445882349F08091E1049091E20480178E
:10415000910710F40C948B2C80915511882319F041
:1041600081E080935411F1100C94882C0E94E95046
:1041700060934114709342148093431490934414B9
:104180000C94882C8091E3049091E40421E0209326
:10419000531141E060E00E9498590C94882C0E94D1
:1041A000E9506093D8047093D9048093DA04909313
:1041B000DB0400914114109142142091431430917A
:1041C0004414601B710B820B930B28EE33E040E02C
:1041D00050E00F94F000CA01B9012CE330E040E058
:1041E00050E00F94F0007F936F933F932F9383EBF6
:1041F00092E09F938F938E010F5F1F4F1F930F933A
:104200000E949AFD0FB6F894DEBF0FBECDBFE9E560
:10421000F1E28491882341F09091C00095FFFCCF9A
:104220008093C6003196F5CFF8018191882339F04B
:104230009091C00095FFFCCF8093C600F6CF80918F
:10424000C00085FFFCCF8AE08093C60060E0C80113
:104250000E942E9280916A14882311F40C94882C69
:1042600010926A140091691410E0000F111F015997
:104270001B4EF80160817181072E000C880B990B91
:104280000E94CFFD2091C3023091C4024091C5022B
:104290005091C6020F945703181614F00C94882CF2
:1042A000F801118210820C94882C83E50E94244529
:1042B000882311F40C94882C0E9437457C0180E5FA
:1042C0000E942445882339F0FFEFEF16F10409F02E
:1042D00010F40C949F2C0DE010E0ECEEF2E08191D4
:1042E00091918017910711F40C94882C23E0EC3203
:1042F000F207A9F70830110529F4F0926C14E09246
:104300006B1404C017FF02C00C94882C61E0802F4E
:104310000E94AE4F6E2D802F0E947F4FB701802FDD
:104320000E94EA4F0C94882C88E690E00E9486F167
:1043300081110C94882C8091E40283FF02C00C94BC
:10434000882C83E50E942445882311F40C94882C42
:104350000E9444452091991430E0220F331F8901B7
:1043600001591B4E0F947002F801718360830C9405
:10437000882C83E50E942445882319F00E94374544
:1043800001C082E18093E40280FF21C0E9E5F1E20F
:104390008491882341F09091C00095FFFCCF8093D9
:1043A000C6003196F5CFE7EDF2E08491882341F025
:1043B0009091C00095FFFCCF8093C6003196F5CF59
:1043C0008091C00085FFFCCF8AE08093C600809179
:1043D000E40283FD02C00C94882CE9E5F1E28491AB
:1043E000882341F09091C00095FFFCCF8093C600D8
:1043F0003196F5CFE2ECF2E08491882341F0909180
:10440000C00095FFFCCF8093C6003196F5CF809118
:10441000C00085FFFCCF8AE08093C6000E94A17493
:104420000C94882C8AEE92E00E9433D00E9442EFD6
:104430000C94882C0E9478F00C94FE2D8DE690E070
:104440000E9486F181110C94882C8091E40283FFF4
:1044500002C00C94882C87E093E00E94AE5C83E558
:104460000E94244581110C94A42C82E50E942445CD
:1044700081110C94A42C86E40E94244580936A1434
:10448000882351F00E9444456093BB027093BC02A4
:104490008093BD029093BE0283E50E942445882349
:1044A00051F00E9444456093C3027093C40280930C
:1044B000C5029093C60282E40E942445882351F0ED
:1044C0000E9444456093BF027093C0028093C10272
:1044D0009093C2020E94E9502B013C010091991473
:1044E00010E0F801EE0FFF1FE159FB4E6081718172
:1044F000072E000C880B990B0E94CFFD000F111F97
:10450000000F111FF801EF5CFB4E11E0208131819B
:10451000428153810F94570318160CF010E010934A
:10452000E5041092451488248A94982C54011AE0CA
:10453000312E08EEC02E03E0D02EE12CF12C80911C
:10454000451481110C94B52CFFEF8F169F06AF0612
:10455000BF0611F40C94CC2CB7FE02C00C94B52C01
:104560000E94E95068197909603A7F4010F40C9470
:10457000CC2C0C94B52C8091E40283FF02C00C94E7
:10458000882C8CE193E00E94AE5C83E50E94244578
:10459000182F81110C94BB2D82E50E9424458111B6
:1045A0000C94BB2D0E94E9506B017C0110924514C4
:1045B00060916D1470916E14072E000C880B990B8E
:1045C0000E94CFFD01E020912D1430912E144091D6
:1045D0002F14509130140F94570318160CF000E06C
:1045E0000093E5040AE08091E50460916D147091F8
:1045F0006E14882309F43EC08091451481113AC09D
:10460000072E000C880B990B0E94CFFD20912D14D2
:1046100030912E1440912F14509130140F94570361
:104620001816E4F50E94E95046015701E8EE8E0E97
:10463000E3E09E1EA11CB11C86169706A806B906CB
:10464000B0F46DAF7EAF8FAF21969FAF21970E94E0
:1046500054EF21969FAD21978FAD7EAD6DAD20912A
:10466000C00025FFFCCF0093C6006B017C010E94B7
:104670006ED0B9CF072E000C880B990B0E94CFFD8E
:1046800020912D1430912E1440912F1450913014FC
:104690000E94C9FD87FF02C0112321F282E193E04D
:1046A0000E94AE5C0E94864A0C94882C83E50E948E
:1046B0002445811103C08FEF90E00FC00E94374561
:1046C00097FD09C00E9437458F3F910509F09CF77F
:1046D0000E94374502C080E090E090936C14809374
:1046E0006B140C94882C0E9437EF0C94882C0E9439
:1046F0001DEF0C94882C1092DF040C94882C81E020
:104700008093DF040C94882C83E50E942445882341
:10471000A1F00E94444520E030E04AE754E40E94C2
:104720000FFA0F9475026093E5027093E60280938E
:10473000E7029093E8020C94882C88E50E942445B7
:1047400081110C94672C89E50E94244581110C94F9
:10475000672C8AE50E94244581110C94672C85E41E
:104760000E94244581110C94672C0E94D45F0E9402
:1047700028D00C94882C83E50E942445882311F4CA
:104780000C94882C0E94444520E030E04AE754E431
:104790000E940FFA0F94750260939514709396140B
:1047A00080939714909398140C94882CF3E03F1204
:1047B0006AC00E9444452B013C0120E030E040EA01
:1047C00051E40E94C9FD87FF41C0A3019201F80195
:1047D00060817181828193810F9408026B017C0159
:1047E0009B01AC0160911C1470911D1480911E14EA
:1047F00090911F140E940FFA60931C1470931D1463
:1048000080931E1490931F14A7019601F5016081F7
:104810007181828193810E940FFAF5016083718317
:1048200082839383EBADFCAD608171818281938142
:104830000E94CDFDA70196010E940FFA0F94750208
:10484000EBADFCAD6083718382839383F80140827A
:1048500051826282738233940C5F1F4FF4E0AF0E7B
:10486000B11C8BAD9CAD04969CAF8BAF94E0391618
:1048700011F40C94882CF40181914F010E9424457D
:10488000882349F393CF0E944445F80160837183E4
:1048900082839383E0CF9091C00095FFFCCF8093FB
:1048A000C600319684918111F6CF0C94882C60E07B
:1048B0008091E3049091E4040E942E920C94882C41
:1048C000EEEFF3E08491882341F09091C00095FFD2
:1048D000FCCF8093C6003196F5CF6091F2067091BF
:1048E000F3068091F4069091F50642E00E94E47888
:1048F000EAEFF3E08491882341F09091C00095FFA6
:10490000FCCF8093C6003196F5CF6091F60670918A
:10491000F7068091F8069091F90642E00E94E4784B
:10492000E6EFF3E08491882341F09091C00095FF79
:10493000FCCF8093C6003196F5CF6091FA06709156
:10494000FB068091FC069091FD0642E00E94E4780F
:10495000E2EFF3E08491882341F09091C00095FF4D
:10496000FCCF8093C6003196F5CF6091FE06709122
:10497000FF06809100079091010742E00E94E478D1
:10498000E7EEF3E08491882341F09091C00095FF19
:10499000FCCF8093C6003196F5CF80E090E00E9476
:1049A000B15F42E00E94E478E3EEF3E08491882373
:1049B00041F09091C00095FFFCCF8093C6003196E6
:1049C000F5CF81E090E00E94B15F42E00E94E47880
:1049D000EFEDF3E08491882341F09091C00095FFC2
:1049E000FCCF8093C6003196F5CF82E090E00E9424
:1049F000B15F42E00E94E4788091C00085FFFCCF67
:104A00008AE08093C60084C781E08093150280C746
:104A1000109215027DC783E50E942445882349F141
:104A20000E943745823010F1E8E6F6E18491882350
:104A300041F09091C00095FFFCCF8093C600319665
:104A4000F5CFE1E0F4E08491882341F09091C0003B
:104A500095FFFCCF8093C6003196F5CF8091C000C2
:104A600085FFFCCF8AE08093C60052C7813009F4ED
:104A700042C088E40E942445882391F00E94374573
:104A8000883791053CF08530E1E09E072CF084E00A
:104A900091E002C088E790E09093E3138093E213E3
:104AA00086E40E942445882381F00E9437458F3F89
:104AB000910519F014F08FEF90E097FF02C080E0AD
:104AC00090E09093E5138093E41382E40E942445E0
:104AD000882309F41DC70E9437458838910514F0D2
:104AE00087E890E097FF02C080E090E09093E113A8
:104AF0008093E0130DC788E40E942445882391F039
:104B00000E943745883791053CF08530F1E09F07DA
:104B10002CF084E091E002C088E790E09093E913E4
:104B20008093E81386E40E942445882381F00E9444
:104B300037458F3F910519F014F08FEF90E097FF04
:104B400002C080E090E09093EB138093EA1382E43C
:104B50000E942445882309F4DBC60E943745883823
:104B6000910514F087E890E097FF02C080E090E0A4
:104B70009093E7138093E613CBC60E94BAEDC8C6A4
:104B8000F80181918F010E942445882349F00E94F9
:104B900044450F947502F701608371838283938388
:104BA000F4E0EF0EF11CD012EBCF0E94C55EB0C650
:104BB0001CE0E12E14E1F12E0CE213E084E0D82E8B
:104BC000D00EF80181918F010E942445882339F08D
:104BD0000E944445F7016083718382839383F4E0EC
:104BE000EF0EF11CD012EDCF93C60E9441ED90C69E
:104BF0000E94E4EC8DC6F4E0EF0EF11CD01609F42F
:104C000087C6F80181918F010E942445882399F37A
:104C10000E944445F7016083718382839383EBCFC5
:104C20008AED90E00E9486F1811172C688E50E94AB
:104C30002445882381F00091991410E00E94444596
:104C4000000F111F000F111FF801EA51FB4F608385
:104C500071838283938389E50E942445882381F0B0
:104C60000091991410E00E944445000F111F000F9D
:104C7000111FF801E251FB4F60837183828393839C
:104C8000E9E5F1E28491882341F09091C00095FF1D
:104C9000FCCF8093C6003196F5CFE2E2F4E0849138
:104CA000882341F09091C00095FFFCCF8093C6000F
:104CB0003196F5CF06EE14E060E2E62E7CE2F72EA8
:104CC0008091C00085FFFCCFE092C600F8016191A1
:104CD0007191819191918F0142E00E94E4788091DD
:104CE000C00085FFFCCFF092C600F8016481758199
:104CF0008681978142E00E94E478F4E00E3E1F072F
:104D0000F9F68091C00085FFFCCF8AE08093C60051
:104D1000FFC583E50E942445882309F4F9C50E9454
:104D200044450F9470027093CC026093CB02F0C59F
:104D300083E50E942445882309F4EAC50E9444457E
:104D40000F9470026B017C018DED90E00E9486F162
:104D50008111DEC5E0919914F0E0EE0FFF1FE953D9
:104D6000FD4FD182C082D4C580E50E9424458823AE
:104D700009F4CEC50E9444450F947002D62EE62E4B
:104D8000F72E83E50E942445882331F00E94444594
:104D90000F9470028B0102C00FEF1FEFC801019644
:104DA000039708F0B5C5ECEEF2E0819191918E1574
:104DB0009F0509F4ADC523E0EC32F207B1F7F7FC2B
:104DC000A7C50E94D45FFD2C60E08D2D0E94AE4FE0
:104DD0000F3F8FEF180731F00130110571F401E03A
:104DE00010E00DC08D2D0E94BBE231E020E0892B48
:104DF00009F030E0032F122F02C000E010E08F2DE9
:104E00000E94BBE28017910709F482C50E946ED010
:104E1000F6CF83E50E942445882321F00E94374580
:104E20008C0102C00EE610E080E50E942445882334
:104E3000B1F08091E1049091E2044AE050E060E03A
:104E400070E001960E9429FC6938E3E17E07810544
:104E5000910548F068E873E180E090E004C068EEF6
:104E600073E080E090E0012B19F00E94F4B550C58A
:104E70000E94B1504DC585E40E942445811110C0A7
:104E800080E50E9424458823A9F00E944445609350
:104E9000B3027093B4028093B5029093B6020AC035
:104EA0000E9444450F947002623071054CF3E9E5AD
:104EB000F1E2D7C089E40E942445882381F00E9452
:104EC00044452CE933E549E45EE30E940FFA609320
:104ED0000D0270930E0280930F029093100284E4EF
:104EE0000E942445882381F00E9444452CE933E543
:104EF00049E45EE30F9408026093B7027093B8022E
:104F00008093B9029093BA0283E40E9424458823D7
:104F100051F00E9444456093AF027093B0028093B9
:104F2000B1029093B2028CE40E942445882341F0A0
:104F30000E9444450F9470027093D7026093D6028A
:104F40008091D6029091D702C39734F082E390E02B
:104F50009093D7028093D6020E940D78EBECF3E099
:104F60008191882339F09091C00095FFFCCF809308
:104F7000C600F6CFEEECF3E08191882339F09091F2
:104F8000C00095FFFCCF8093C600F6CF6091B302BE
:104F90007091B4028091B5029091B60242E00E94F5
:104FA000E478E2EDF3E08191882339F09091C0003C
:104FB00095FFFCCF8093C600F6CF2CE933E549E49A
:104FC0005EE360910D0270910E0280910F0290914C
:104FD00010020F94080242E00E94E478E6EDF3E04C
:104FE0008191882339F09091C00095FFFCCF809388
:104FF000C600F6CF2CE933E549E45EE36091B702E1
:105000007091B8028091B9029091BA020E940FFA91
:1050100042E00E94E478EAEDF3E08191882339F0E0
:105020009091C00095FFFCCF8093C600F6CF6091B1
:10503000AF027091B0028091B1029091B20242E051
:105040000E94E4788091C00085FFFCCF8AE08093C5
:10505000C6005EC49091C00095FFFCCF8093C6004F
:10506000319684918111F6CFEEEDF3E081918823A2
:1050700039F09091C00095FFFCCF8093C600F6CF29
:105080008091C00085FFFCCF8AE08093C60040C4B9
:1050900080E50E942445882351F00E944445609396
:1050A000D2027093D3028093D4029093D50289E404
:1050B0000E942445882381F00E9444452CE933E571
:1050C00049E45EE30E940FFA6093090270930A02BA
:1050D00080930B0290930C0284E40E942445882361
:1050E00081F00E9444452CE933E549E45EE30F94E6
:1050F00008026093CE027093CF028093D002909307
:10510000D1020E940D78EBECF3E08191882339F015
:105110009091C00095FFFCCF8093C600F6CFEEECD7
:10512000F3E08191882339F09091C00095FFFCCF86
:105130008093C600F6CF6091D2027091D302809125
:10514000D4029091D50242E00E94E478E2EDF3E0CF
:105150008191882339F09091C00095FFFCCF809316
:10516000C600F6CF2CE933E549E45EE3609109021D
:1051700070910A0280910B0290910C020F94080228
:1051800042E00E94E478E6EDF3E08191882339F073
:105190009091C00095FFFCCF8093C600F6CF2CE91C
:1051A00033E549E45EE36091CE027091CF028091D5
:1051B000D0029091D1020E940FFA42E00E94E4785E
:1051C0008091C00085FFFCCF8AE08093C600A0C319
:1051D00083E50E942445882319F00E94444503C0BA
:1051E00060E070E0CB016093E0027093E102809395
:1051F000E2029093E3028CC385E40E942445882355
:1052000021F00E9437458C0102C000E010E083E4E9
:105210000E942445882321F00E9437457C0103C069
:1052200045E0E42EF12C83E50E942445882319F003
:105230000E9444450BC017FD05C060E070E086E1A8
:1052400093E404C060E070E08CE892E40230110561
:1052500010F4009399149701A8010E9415E758C310
:105260000E94D45F55C30E94895F52C3F4018191AB
:105270004F01882309F48AC0F101C080D180E28007
:10528000F380F801E25CFD4F20813181428153813E
:10529000F801EB53F34F60817181828193810F9408
:1052A0002C0120E030E040E05FE30E940FFA9B0118
:1052B000AC01C701B6010F945703181644F4C80196
:1052C0008056914E0E9487442B013C0103C0412C23
:1052D000512C3201A3019201C701B6010F942B0199
:1052E0006B017C0120E030E040EA51EC0F94570361
:1052F0001816F4F420E030E040EA51E4C701B601AA
:105300000E94C9FD87FF14C0A7019601F5016081C5
:105310007181828193810F942B01F50160837183E8
:1053200082839383F10140825182628273822EC014
:10533000E8E6F6E18491882341F09091C00095FF62
:10534000FCCF8093C6003196F5CFECE7F4E0849172
:10535000882341F09091C00095FFFCCF8093C60058
:105360003196F5CF8091C00085FFFCCF8AE0809315
:10537000C6008EE694E00E940E9280E694E0909340
:105380003707809336070E944546C2C2F4E0AF0E4D
:10539000B11C0C5F1F4F24E0220E311C0C30110594
:1053A00009F064CF8CE0FE013196A2EFB6E00190E7
:1053B0000D928A95E1F78CE0FE01B096AFE7B4E17B
:1053C00001900D928A95E1F70E94C54380E594E033
:1053D0000E940E9282E394E0909337078093360701
:1053E0000E94454695C20E940BB492C20E941AB216
:1053F0008FC20E942FC18CC283E50E942445182FC2
:10540000882351F00E94444511E020E030E0A901DA
:105410000E94C9FD811110E0812F0E94F9BB78C262
:10542000E9E5F1E28491882341F09091C00095FF75
:10543000FCCF8093C6003196F5CFEFEAF4E084917B
:10544000882341F09091C00095FFFCCF8093C60067
:105450003196F5CF8091C00085FFFCCF80E280932C
:10546000C6008AE50E942445882309F453C00E949F
:1054700044456B017C0120E030E040EA51EC0F94A0
:10548000570387FD20C020E030E040EA51E4C70127
:10549000B6010E94C9FD1816B4F0C092A302D092C2
:1054A000A402E092A502F092A602E4EAF4E084915C
:1054B000882309F43BC09091C00095FFFCCF8093F6
:1054C000C6003196F4CFE7EAF4E08491882341F0F6
:1054D0009091C00095FFFCCF8093C6003196F5CF28
:1054E0006CEE7FEF8FEF9FEF0E94BE78ECE9F4E067
:1054F0008491882341F09091C00095FFFCCF809368
:10550000C6003196F5CF64E170E080E090E00E9443
:10551000BE780CC04091A3025091A4026091A502F4
:105520007091A60289E994E00E945D4A8091C000D2
:1055300085FFFCCF8AE08093C600EAC11F5F14306C
:1055400079F0F70181917F010E9424458823B1F30E
:105550000E9444450F947002812F0E949291EECFD9
:1055600082E40E942445882339F00E9444450F9428
:10557000700284E00E94929183E50E942445882372
:1055800009F4C6C110E00E9444450F947002812FB7
:105590000E9492911F5F1530B1F7BAC183E50E9456
:1055A0002445882331F00E9444450F9470028B01FA
:1055B00002C000E010E080E50E942445882331F01D
:1055C0000E9444450F947002CB0102C080E090E03D
:1055D000B8010E9478919CC183E50E942445811105
:1055E00006C09CE2E92E93E0F92E10E00FC010E017
:1055F0000E9444450F947502812F0E9461911F5FA4
:105600001530B1F7EECF1F5F143079F0F7018191BB
:105610007F010E9424458823B1F30E9444450F94E2
:105620007502812F0E946191EECF82E40E94244591
:10563000882339F00E9444450F94750284E00E944B
:1056400061910E9408EC64C183E50E94244588238F
:1056500009F452C00E9437458130910549F0029704
:1056600009F04AC00CE2E02E03E0F02E10E025C065
:105670008CE2E82E83E0F82E10E0F70181917F01A3
:105680000E942445882341F00E9444450F947002F3
:105690004FEF812F0E9410911F5F143071F782E449
:1056A0000E942445882341F10E9444450F947002D2
:1056B0004FEF1FC01F5F143089F0F70181917F0108
:1056C0000E9424458823B1F30E9444450F94700240
:1056D000462F6FEF812F0E941091ECCF82E40E9441
:1056E0002445882349F00E9444450F947002462FB8
:1056F0006FEF84E00E9410910E9408EC09C1F82E1F
:10570000F1E0F81778F5E9E5F1E28491882341F0BA
:105710009091C00095FFFCCF8093C6003196F5CFE5
:105720008091C00085FFFCCF84E58093C6006F2D7B
:1057300070E080E090E04AE00E944978EEEDF3E00E
:105740008191882339F09091C00095FFFCCF809320
:10575000C600F6CF8091C00085FFFCCF8AE0809321
:10576000C600D6C08093991486E40E9424458823FD
:10577000A1F00E9444454B015C0120E030E0A9010A
:105780000F94570318165CF480924A0290924B02D1
:10579000A0924C02B0924D0202C0B12C02C0BB24B8
:1057A000B39480916914F81609F469C00E94B1435A
:1057B0006801DD24E0906914F12CF601EE0FFF1F63
:1057C000EE0FFF1FEA51FB4FD701AA0FBB1FAA0F15
:1057D000BB1FAA51BB4F2D913D914D915C916081B2
:1057E0007181828193810F942B019B01AC016091A7
:1057F000F2067091F3068091F4069091F5060F94ED
:105800002C016093F2067093F3068093F406909354
:10581000F506F601EE0FFF1FEE0FFF1FE251FB4FE3
:10582000D701AA0FBB1FAA0FBB1FA251BB4F2D91BF
:105830003D914D915C9160817181828193810F9442
:105840002B019B01AC016091F6067091F7068091E7
:10585000F8069091F9060F942C016093F606709368
:10586000F7068093F8069093F906009369140E9456
:10587000C543BB2021F080915602811186C1E9E524
:10588000F1E28491882341F09091C00095FFFCCF14
:105890008093C6003196F5CFEFEEF3E08191882337
:1058A00039F09091C00095FFFCCF8093C600F6CFF1
:1058B0006091691470E080E090E00E94BE78809171
:1058C000C00085FFFCCF8AE08093C60021C00E9403
:1058D000D45F88E50E942445882319F0179A109216
:1058E000240589E50E942445882319F0169A109210
:1058F00025058AE50E942445882319F0159A1092FF
:10590000260585E40E942445882311F0149A139AF1
:105910000E945FD873C10E943745AC01990F660B96
:10592000770B4093D5135093D6136093D71370938E
:10593000D81380E293E10E9465680C94AC200E9429
:1059400037458C010C946D210E9444452091991497
:1059500030E0220F331F890101591B4E0F94700252
:10596000F801718360830C943B2283EF92E00E94E4
:10597000AE5C0E94864A8091911490919214A091FD
:105980009314B09194148093411490934214A09373
:105990004314B0934414BCCF0E94E9509301820198
:1059A00008511C4F2F4F3F4F06171707280739077D
:1059B00008F046C00E9454EFE3E0F3E084918823AE
:1059C00041F09091C00095FFFCCF8093C6003196C6
:1059D000F5CFB7FC1EC00E94E95095018401005626
:1059E000104F2F4F3F4F28013901461A570A680AB6
:1059F000790AC301B201A70196010F94F000CA0110
:105A0000B9014AE00E9449788091C00085FFFCCF2F
:105A100011C0E1E0F3E08491882341F09091C0004F
:105A200095FFFCCF8093C6003196F5CF8091C000E2
:105A300085FFFCCF3092C6000E94E9502B013C014B
:105A40000E946ED02FEF82169206A206B20609F0CF
:105A500056C09091E50480919914992341F190E00A
:105A60008C01000F111F000F111F0F5C1B4E880FC0
:105A7000991FFC01E159FB4E60817181072E000CDA
:105A8000880B990B0E94CFFD20E030E040E850E405
:105A90000F942B019B01AC01F8016081718182811F
:105AA00093810F94570387FF60C00C949F2290E06E
:105AB0008C01000F111F000F111F0F5C1B4E880F70
:105AC000991FFC01E159FB4E60817181072E000C8A
:105AD000880B990B0E94CFFD20E030E040E850E4B5
